{
  "abi": [
    {
      "inputs": [],
      "stateMutability": "nonpayable",
      "type": "constructor"
    },
    {
      "inputs": [],
      "name": "ApprovalCallerNotOwnerNorApproved",
      "type": "error"
    },
    {
      "inputs": [],
      "name": "ApprovalQueryForNonexistentToken",
      "type": "error"
    },
    {
      "inputs": [],
      "name": "BalanceQueryForZeroAddress",
      "type": "error"
    },
    {
      "inputs": [],
      "name": "MintERC2309QuantityExceedsLimit",
      "type": "error"
    },
    {
      "inputs": [],
      "name": "MintToZeroAddress",
      "type": "error"
    },
    {
      "inputs": [],
      "name": "MintZeroQuantity",
      "type": "error"
    },
    {
      "inputs": [],
      "name": "OwnerQueryForNonexistentToken",
      "type": "error"
    },
    {
      "inputs": [],
      "name": "OwnershipNotInitializedForExtraData",
      "type": "error"
    },
    {
      "inputs": [],
      "name": "TransferCallerNotOwnerNorApproved",
      "type": "error"
    },
    {
      "inputs": [],
      "name": "TransferFromIncorrectOwner",
      "type": "error"
    },
    {
      "inputs": [],
      "name": "TransferToNonERC721ReceiverImplementer",
      "type": "error"
    },
    {
      "inputs": [],
      "name": "TransferToZeroAddress",
      "type": "error"
    },
    {
      "inputs": [],
      "name": "URIQueryForNonexistentToken",
      "type": "error"
    },
    {
      "anonymous": false,
      "inputs": [
        {
          "indexed": true,
          "internalType": "address",
          "name": "owner",
          "type": "address"
        },
        {
          "indexed": true,
          "internalType": "address",
          "name": "approved",
          "type": "address"
        },
        {
          "indexed": true,
          "internalType": "uint256",
          "name": "tokenId",
          "type": "uint256"
        }
      ],
      "name": "Approval",
      "type": "event"
    },
    {
      "anonymous": false,
      "inputs": [
        {
          "indexed": true,
          "internalType": "address",
          "name": "owner",
          "type": "address"
        },
        {
          "indexed": true,
          "internalType": "address",
          "name": "operator",
          "type": "address"
        },
        {
          "indexed": false,
          "internalType": "bool",
          "name": "approved",
          "type": "bool"
        }
      ],
      "name": "ApprovalForAll",
      "type": "event"
    },
    {
      "anonymous": false,
      "inputs": [
        {
          "indexed": true,
          "internalType": "uint256",
          "name": "fromTokenId",
          "type": "uint256"
        },
        {
          "indexed": false,
          "internalType": "uint256",
          "name": "toTokenId",
          "type": "uint256"
        },
        {
          "indexed": true,
          "internalType": "address",
          "name": "from",
          "type": "address"
        },
        {
          "indexed": true,
          "internalType": "address",
          "name": "to",
          "type": "address"
        }
      ],
      "name": "ConsecutiveTransfer",
      "type": "event"
    },
    {
      "anonymous": false,
      "inputs": [
        {
          "indexed": true,
          "internalType": "address",
          "name": "user",
          "type": "address"
        },
        {
          "indexed": true,
          "internalType": "address",
          "name": "newOwner",
          "type": "address"
        }
      ],
      "name": "OwnershipTransferred",
      "type": "event"
    },
    {
      "anonymous": false,
      "inputs": [
        {
          "indexed": true,
          "internalType": "address",
          "name": "from",
          "type": "address"
        },
        {
          "indexed": true,
          "internalType": "address",
          "name": "to",
          "type": "address"
        },
        {
          "indexed": true,
          "internalType": "uint256",
          "name": "tokenId",
          "type": "uint256"
        }
      ],
      "name": "Transfer",
      "type": "event"
    },
    {
      "inputs": [
        {
          "internalType": "address",
          "name": "to",
          "type": "address"
        },
        {
          "internalType": "uint256",
          "name": "tokenId",
          "type": "uint256"
        }
      ],
      "name": "approve",
      "outputs": [],
      "stateMutability": "payable",
      "type": "function"
    },
    {
      "inputs": [
        {
          "internalType": "address",
          "name": "owner",
          "type": "address"
        }
      ],
      "name": "balanceOf",
      "outputs": [
        {
          "internalType": "uint256",
          "name": "",
          "type": "uint256"
        }
      ],
      "stateMutability": "view",
      "type": "function"
    },
    {
      "inputs": [
        {
          "internalType": "uint256",
          "name": "tokenId",
          "type": "uint256"
        }
      ],
      "name": "getApproved",
      "outputs": [
        {
          "internalType": "address",
          "name": "",
          "type": "address"
        }
      ],
      "stateMutability": "view",
      "type": "function"
    },
    {
      "inputs": [
        {
          "internalType": "address",
          "name": "owner",
          "type": "address"
        },
        {
          "internalType": "address",
          "name": "operator",
          "type": "address"
        }
      ],
      "name": "isApprovedForAll",
      "outputs": [
        {
          "internalType": "bool",
          "name": "",
          "type": "bool"
        }
      ],
      "stateMutability": "view",
      "type": "function"
    },
    {
      "inputs": [],
      "name": "name",
      "outputs": [
        {
          "internalType": "string",
          "name": "",
          "type": "string"
        }
      ],
      "stateMutability": "view",
      "type": "function"
    },
    {
      "inputs": [],
      "name": "owner",
      "outputs": [
        {
          "internalType": "address",
          "name": "",
          "type": "address"
        }
      ],
      "stateMutability": "view",
      "type": "function"
    },
    {
      "inputs": [
        {
          "internalType": "uint256",
          "name": "tokenId",
          "type": "uint256"
        }
      ],
      "name": "ownerOf",
      "outputs": [
        {
          "internalType": "address",
          "name": "",
          "type": "address"
        }
      ],
      "stateMutability": "view",
      "type": "function"
    },
    {
      "inputs": [
        {
          "internalType": "address",
          "name": "from",
          "type": "address"
        },
        {
          "internalType": "address",
          "name": "to",
          "type": "address"
        },
        {
          "internalType": "uint256",
          "name": "tokenId",
          "type": "uint256"
        }
      ],
      "name": "safeTransferFrom",
      "outputs": [],
      "stateMutability": "payable",
      "type": "function"
    },
    {
      "inputs": [
        {
          "internalType": "address",
          "name": "from",
          "type": "address"
        },
        {
          "internalType": "address",
          "name": "to",
          "type": "address"
        },
        {
          "internalType": "uint256",
          "name": "tokenId",
          "type": "uint256"
        },
        {
          "internalType": "bytes",
          "name": "_data",
          "type": "bytes"
        }
      ],
      "name": "safeTransferFrom",
      "outputs": [],
      "stateMutability": "payable",
      "type": "function"
    },
    {
      "inputs": [
        {
          "internalType": "address",
          "name": "operator",
          "type": "address"
        },
        {
          "internalType": "bool",
          "name": "approved",
          "type": "bool"
        }
      ],
      "name": "setApprovalForAll",
      "outputs": [],
      "stateMutability": "nonpayable",
      "type": "function"
    },
    {
      "inputs": [
        {
          "internalType": "bytes4",
          "name": "interfaceId",
          "type": "bytes4"
        }
      ],
      "name": "supportsInterface",
      "outputs": [
        {
          "internalType": "bool",
          "name": "",
          "type": "bool"
        }
      ],
      "stateMutability": "view",
      "type": "function"
    },
    {
      "inputs": [],
      "name": "symbol",
      "outputs": [
        {
          "internalType": "string",
          "name": "",
          "type": "string"
        }
      ],
      "stateMutability": "view",
      "type": "function"
    },
    {
      "inputs": [
        {
          "internalType": "uint256",
          "name": "tokenId",
          "type": "uint256"
        }
      ],
      "name": "tokenURI",
      "outputs": [
        {
          "internalType": "string",
          "name": "",
          "type": "string"
        }
      ],
      "stateMutability": "view",
      "type": "function"
    },
    {
      "inputs": [],
      "name": "totalSupply",
      "outputs": [
        {
          "internalType": "uint256",
          "name": "",
          "type": "uint256"
        }
      ],
      "stateMutability": "view",
      "type": "function"
    },
    {
      "inputs": [
        {
          "internalType": "address",
          "name": "from",
          "type": "address"
        },
        {
          "internalType": "address",
          "name": "to",
          "type": "address"
        },
        {
          "internalType": "uint256",
          "name": "tokenId",
          "type": "uint256"
        }
      ],
      "name": "transferFrom",
      "outputs": [],
      "stateMutability": "payable",
      "type": "function"
    },
    {
      "inputs": [
        {
          "internalType": "address",
          "name": "newOwner",
          "type": "address"
        }
      ],
      "name": "transferOwnership",
      "outputs": [],
      "stateMutability": "nonpayable",
      "type": "function"
    }
  ],
  "bytecode": {
    "object": "0x60076103008181526611a320a31a22a360c91b6103205260809081526103408281526611a2a32320a2a360c91b6103605260a052610380828152662345464634464160c81b6103a081905260c0919091526103c0838152662346414546464160c81b6103e05260e0526104008381526104209190915261010052610440828152662346344546464160c81b61046052610120526104808281526611a320a320a2a360c91b6104a052610140526104c08281526608d1905151918d60ca1b6104e05261016052610500828152662345464641464160c81b61052052610180526105408281526611a2a3231ba2a160c91b6105608190526101a0919091526105808381526611a2212221222160c91b6105a0526101c0526105c0838152662345444631463760c81b6105e0526101e0526106008381526106209190915261020052610640828152662346374637453960c81b61066052610220526106808281526611a2a322a322a360c91b6106a052610240526106c08281526611a318229b229b60c91b6106e05261026052610700828152662345364630454560c81b6107205261028052610740828152660234630453646360cc1b610760526102a052610780828152660234536453646360cc1b6107a0526102c0526108006040526107c09182526611a31822a2a22160c91b6107e0526102e091909152620002069060099060146200051b565b50604080516102a08101825260076102608201818152660234345453544360cc1b610280840181905290835283518085018552828152660236666383038360cc1b6020828101919091528085019190915284518086018652838152662337394234423760c81b818301528486015284518086018652838152662336423741413160c81b818301526060850152845180860186528381526608d11150904e5160ca1b81830152608085015284518086018652838152662346364145393960c81b8183015260a085015284518086018652838152662346464243424360c81b8183015260c085015284518086018652838152662342354541454160c81b8183015260e0850152845180860186528381528082019290925261010084019190915283518085018552828152662363306462613960c81b81830152610120840152835180850185528281526611b11c3298311b60c91b81830152610140840152835180850185528281526608ce504e0c4e4d60ca1b81830152610160840152835180850185528281526611b21c32311b9b60c91b8183015261018084015283518085018552828152662345384539413160c81b818301526101a084015283518085018552828152660234543423339360cc1b818301526101c08401528351808501855282815266046868c888286760cb1b818301526101e084015283518085018552828152660236630633063360cc1b8183015261020084015283518085018552828152662345354544423760c81b8183015261022084015283518085019094529083526611a31b2222a31b60c91b908301526102408101919091526200046e90600a90601362000578565b503480156200047c57600080fd5b50604080518082018252600980825268263ab1b4b2213637b160b91b602080840182905284518086018652928352820152600080546001600160a01b0319163390811782559351929391928291907f8be0079c531659141344cd1fd0a4f28419497f9722a3daafe3b4186f6b6457e0908290a3506003620004fe8382620006e2565b5060046200050d8282620006e2565b5050600060015550620007ae565b82805482825590600052602060002090810192821562000566579160200282015b82811115620005665782518290620005559082620006e2565b50916020019190600101906200053c565b5062000574929150620005c3565b5090565b82805482825590600052602060002090810192821562000566579160200282015b82811115620005665782518290620005b29082620006e2565b509160200191906001019062000599565b8082111562000574576000620005da8282620005e4565b50600101620005c3565b508054620005f29062000653565b6000825580601f1062000603575050565b601f01602090049060005260206000209081019062000623919062000626565b50565b5b8082111562000574576000815560010162000627565b634e487b7160e01b600052604160045260246000fd5b600181811c908216806200066857607f821691505b6020821081036200068957634e487b7160e01b600052602260045260246000fd5b50919050565b601f821115620006dd57600081815260208120601f850160051c81016020861015620006b85750805b601f850160051c820191505b81811015620006d957828155600101620006c4565b5050505b505050565b81516001600160401b03811115620006fe57620006fe6200063d565b62000716816200070f845462000653565b846200068f565b602080601f8311600181146200074e5760008415620007355750858301515b600019600386901b1c1916600185901b178555620006d9565b600085815260208120601f198616915b828110156200077f578886015182559484019460019091019084016200075e565b50858210156200079e5787850151600019600388901b60f8161c191681555b5050505050600190811b01905550565b61352d80620007be6000396000f3fe6080604052600436106100f35760003560e01c806370a082311161008a578063b88d4fde11610059578063b88d4fde14610294578063c87b56dd146102a7578063e985e9c5146102c7578063f2fde38b1461031d57600080fd5b806370a08231146102125780638da5cb5b1461023257806395d89b411461025f578063a22cb4651461027457600080fd5b806318160ddd116100c657806318160ddd146101a957806323b872dd146101cc57806342842e0e146101df5780636352211e146101f257600080fd5b806301ffc9a7146100f857806306fdde031461012d578063081812fc1461014f578063095ea7b314610194575b600080fd5b34801561010457600080fd5b50610118610113366004611ef6565b61033d565b60405190151581526020015b60405180910390f35b34801561013957600080fd5b50610142610422565b6040516101249190611f81565b34801561015b57600080fd5b5061016f61016a366004611f94565b6104b4565b60405173ffffffffffffffffffffffffffffffffffffffff9091168152602001610124565b6101a76101a2366004611fd1565b61051e565b005b3480156101b557600080fd5b50600254600154035b604051908152602001610124565b6101a76101da366004611ffb565b610633565b6101a76101ed366004611ffb565b6108ec565b3480156101fe57600080fd5b5061016f61020d366004611f94565b61090c565b34801561021e57600080fd5b506101be61022d366004612037565b610917565b34801561023e57600080fd5b5060005461016f9073ffffffffffffffffffffffffffffffffffffffff1681565b34801561026b57600080fd5b50610142610999565b34801561028057600080fd5b506101a761028f366004612052565b6109a8565b6101a76102a23660046120bd565b610a3f565b3480156102b357600080fd5b506101426102c2366004611f94565b610aaf565b3480156102d357600080fd5b506101186102e23660046121b7565b73ffffffffffffffffffffffffffffffffffffffff918216600090815260086020908152604080832093909416825291909152205460ff1690565b34801561032957600080fd5b506101a7610338366004612037565b610f78565b60007f01ffc9a7000000000000000000000000000000000000000000000000000000007fffffffff00000000000000000000000000000000000000000000000000000000831614806103d057507f80ac58cd000000000000000000000000000000000000000000000000000000007fffffffff000000000000000000000000000000000000000000000000000000008316145b8061041c57507f5b5e139f000000000000000000000000000000000000000000000000000000007fffffffff000000000000000000000000000000000000000000000000000000008316145b92915050565b606060038054610431906121ea565b80601f016020809104026020016040519081016040528092919081815260200182805461045d906121ea565b80156104aa5780601f1061047f576101008083540402835291602001916104aa565b820191906000526020600020905b81548152906001019060200180831161048d57829003601f168201915b5050505050905090565b60006104bf8261106e565b6104f5576040517fcf4700e400000000000000000000000000000000000000000000000000000000815260040160405180910390fd5b5060009081526007602052604090205473ffffffffffffffffffffffffffffffffffffffff1690565b60006105298261090c565b90503373ffffffffffffffffffffffffffffffffffffffff8216146105b25773ffffffffffffffffffffffffffffffffffffffff8116600090815260086020908152604080832033845290915290205460ff166105b2576040517fcfb3b94200000000000000000000000000000000000000000000000000000000815260040160405180910390fd5b60008281526007602052604080822080547fffffffffffffffffffffffff00000000000000000000000000000000000000001673ffffffffffffffffffffffffffffffffffffffff87811691821790925591518593918516917f8c5be1e5ebec7d5bd14f71427d1e84f3dd0314c0f7b2291e5b200ac8c7c3b92591a4505050565b600061063e826110af565b90508373ffffffffffffffffffffffffffffffffffffffff168173ffffffffffffffffffffffffffffffffffffffff16146106a5576040517fa114810000000000000000000000000000000000000000000000000000000000815260040160405180910390fd5b600082815260076020526040902080543380821473ffffffffffffffffffffffffffffffffffffffff8816909114176107425773ffffffffffffffffffffffffffffffffffffffff8616600090815260086020908152604080832033845290915290205460ff16610742576040517f59c896be00000000000000000000000000000000000000000000000000000000815260040160405180910390fd5b73ffffffffffffffffffffffffffffffffffffffff851661078f576040517fea553b3400000000000000000000000000000000000000000000000000000000815260040160405180910390fd5b801561079a57600082555b73ffffffffffffffffffffffffffffffffffffffff86811660009081526006602052604080822080547fffffffffffffffffffffffffffffffffffffffffffffffffffffffffffffffff019055918716808252919020805460010190554260a01b177c0200000000000000000000000000000000000000000000000000000000176000858152600560205260408120919091557c020000000000000000000000000000000000000000000000000000000084169003610889576001840160008181526005602052604081205490036108875760015481146108875760008181526005602052604090208490555b505b838573ffffffffffffffffffffffffffffffffffffffff168773ffffffffffffffffffffffffffffffffffffffff167fddf252ad1be2c89b69c2b068fc378daa952ba7f163c4a11628f55a4df523b3ef60405160405180910390a4505050505050565b61090783838360405180602001604052806000815250610a3f565b505050565b600061041c826110af565b600073ffffffffffffffffffffffffffffffffffffffff8216610966576040517f8f4eb60400000000000000000000000000000000000000000000000000000000815260040160405180910390fd5b5073ffffffffffffffffffffffffffffffffffffffff1660009081526006602052604090205467ffffffffffffffff1690565b606060048054610431906121ea565b33600081815260086020908152604080832073ffffffffffffffffffffffffffffffffffffffff87168085529083529281902080547fffffffffffffffffffffffffffffffffffffffffffffffffffffffffffffff001686151590811790915590519081529192917f17307eab39ab6107e8899845ad3d59bd9653f200f220920489ca2b5937696c31910160405180910390a35050565b610a4a848484610633565b73ffffffffffffffffffffffffffffffffffffffff83163b15610aa957610a738484848461116d565b610aa9576040517fd1a57ed600000000000000000000000000000000000000000000000000000000815260040160405180910390fd5b50505050565b60606000610ae783604051602001610ac991815260200190565b6040516020818303038152906040528051906020012060001c6112e7565b6040517f4c75636964426c6f6220230000000000000000000000000000000000000000006020820152602b8101859052909150600090604b01604080517fffffffffffffffffffffffffffffffffffffffffffffffffffffffffffffffe08184030181528282018252601d83527f4c75636964426c6f622c2066756c6c79206f6e2d636861696e204e4654000000602084810191909152825160808101909352605880845291945060009291906130c59083013990506000610bd5610bcd86600081518110610bb857610bb861223d565b602002602001015161ffff1660006013611420565b60ff166114c2565b90506000610c84610c0787600181518110610bf257610bf261223d565b602002602001015161ffff166009600d611420565b60ff16610c3588600281518110610c2057610c2061223d565b602002602001015161ffff1660006009611420565b60ff16610c6389600381518110610c4e57610c4e61223d565b602002602001015161ffff1660026008611420565b60ff16610c7c8a600481518110610c4e57610c4e61223d565b60ff16611507565b90506000610d1a610cb688600581518110610ca157610ca161223d565b602002602001015161ffff16605f6069611420565b60ff16610ce489600681518110610ccf57610ccf61223d565b602002602001015161ffff1660056009611420565b60ff16610d128a600781518110610cfd57610cfd61223d565b602002602001015161ffff1660066009611420565b60ff1661161e565b90506000600a610d4f89600781518110610d3657610d3661223d565b602002602001015161ffff166000600a80549050611420565b60ff1681548110610d6257610d6261223d565b9060005260206000200182604051602001610d7e92919061235c565b6040516020818303038152906040529050600082604051602001610da29190612420565b60405160208183030381529060405290506000604051602001610ecc907f3c673e3c636972636c6520207472616e73666f726d203d20227472616e736c6181527f74652837302c20363529222063783d2230222063793d22302220723d2236222060208201527f66696c6c3d2272676261283235352c3235352c3235352c302e342922203e3c2f60408201527f636972636c653e3c636972636c6520207472616e73666f726d203d202274726160608201527f6e736c6174652833302c20363529222063783d2230222063793d22302220723d60808201527f2236222066696c6c3d2272676261283235352c3235352c3235352c302e34292260a08201527f3e3c2f636972636c653e3c2f673e00000000000000000000000000000000000060c082015260ce0190565b604080517fffffffffffffffffffffffffffffffffffffffffffffffffffffffffffffffe08184030181528282018252600683527f3c2f7376673e00000000000000000000000000000000000000000000000000006020848101919091529151909350600091610f4a918b918b91899188918a918e918a91016124d8565b6040516020818303038152906040529050610f668b8b83611638565b9e9d5050505050505050505050505050565b60005473ffffffffffffffffffffffffffffffffffffffff163314610ffe576040517f08c379a000000000000000000000000000000000000000000000000000000000815260206004820152600c60248201527f554e415554484f52495a4544000000000000000000000000000000000000000060448201526064015b60405180910390fd5b600080547fffffffffffffffffffffffff00000000000000000000000000000000000000001673ffffffffffffffffffffffffffffffffffffffff83169081178255604051909133917f8be0079c531659141344cd1fd0a4f28419497f9722a3daafe3b4186f6b6457e09190a350565b60006001548210801561041c5750506000908152600560205260409020547c0100000000000000000000000000000000000000000000000000000000161590565b60008160015481101561113b57600081815260056020526040812054907c010000000000000000000000000000000000000000000000000000000082169003611139575b8060000361113257507fffffffffffffffffffffffffffffffffffffffffffffffffffffffffffffffff016000818152600560205260409020546110f3565b9392505050565b505b6040517fdf2d9b4200000000000000000000000000000000000000000000000000000000815260040160405180910390fd5b6040517f150b7a0200000000000000000000000000000000000000000000000000000000815260009073ffffffffffffffffffffffffffffffffffffffff85169063150b7a02906111c890339089908890889060040161256a565b6020604051808303816000875af1925050508015611221575060408051601f3d9081017fffffffffffffffffffffffffffffffffffffffffffffffffffffffffffffffe016820190925261121e918101906125a9565b60015b611298573d80801561124f576040519150601f19603f3d011682016040523d82523d6000602084013e611254565b606091505b508051600003611290576040517fd1a57ed600000000000000000000000000000000000000000000000000000000815260040160405180910390fd5b805181602001fd5b7fffffffff00000000000000000000000000000000000000000000000000000000167f150b7a02000000000000000000000000000000000000000000000000000000001490505b949350505050565b6060816000036113165760408051600180825281830190925290602080830190803683370190505b5092915050565b6000825b8015611340578161132a816125f5565b92506113399050600a8261265c565b905061131a565b6000600361134f846002612670565b611359919061265c565b905060008167ffffffffffffffff8111156113765761137661208e565b60405190808252806020026020018201604052801561139f578160200160208202803683370190505b50905060006113af600184612683565b90505b86156114165760006113c66103e889612696565b9050808383815181106113db576113db61223d565b61ffff909216602092830291909101909101526113fa6103e88961265c565b97508115611410578161140c816126aa565b9250505b506113b2565b5095945050505050565b60008183111561148c576040517f08c379a000000000000000000000000000000000000000000000000000000000815260206004820152601560248201527f696e76616c6964204d696e2f4d61782072616e676500000000000000000000006044820152606401610ff5565b60006114988484612683565b6114a3906001612670565b90506114af8186612696565b6114b99085612670565b95945050505050565b6060600982815481106114d7576114d761223d565b906000526020600020016040516020016114f191906126df565b6040516020818303038152906040529050919050565b6060600080611516858561168c565b91509150600586101561157c5761152c876116cf565b6115358361182f565b61153e8361182f565b61155161154c60028c61265c565b6116cf565b6040516020016115649493929190612764565b604051602081830303815290604052925050506112df565b6000600a61158b886064612922565b611595919061265c565b905060006115a38983611863565b90506115ae896116cf565b6115b78561182f565b6115c08561182f565b6115c9846116cf565b6115d28d6116cf565b6115db8961182f565b6115e48961182f565b6115ed886116cf565b604051602001611604989796959493929190612939565b6040516020818303038152906040529450505050506112df565b6060600061162d8585856118d1565b90506114b9816119f6565b6060600084848460405160200161165193929190612c48565b6040516020818303038152906040529050806040516020016116739190612d58565b6040516020818303038152906040529150509392505050565b60008080600261169d600587612696565b6116a79190612d9d565b9050600060026116b8600587612696565b6116c29190612d9d565b9196919550909350505050565b60608160000361171257505060408051808201909152600181527f3000000000000000000000000000000000000000000000000000000000000000602082015290565b8160005b811561173c5780611726816125f5565b91506117359050600a8361265c565b9150611716565b60008167ffffffffffffffff8111156117575761175761208e565b6040519080825280601f01601f191660200182016040528015611781576020820181803683370190505b509050815b851561182657611797600182612683565b905060006117a6600a8861265c565b6117b190600a612922565b6117bb9088612683565b6117c6906030612dbd565b905060008160f81b9050808484815181106117e3576117e361223d565b60200101907effffffffffffffffffffffffffffffffffffffffffffffffffffffffffffff1916908160001a90535061181d600a8961265c565b97505050611786565b50949350505050565b6060600082126118425761041c826116cf565b61184e61154c83612dd6565b6040516020016114f19190612e0e565b919050565b600061012c8161187460038661265c565b61187f906064612922565b905060008260646118908285612683565b61189a9088612922565b6118a4919061265c565b6118ae9190612670565b905060646118bd826032612670565b6118c7919061265c565b9695505050505050565b606060008267ffffffffffffffff8111156118ee576118ee61208e565b60405190808252806020026020018201604052801561193357816020015b604080518082019091526000808252602082015281526020019060019003908161190c5790505b509050600061194360028761265c565b90506000611952600a8361265c565b61195c9087612922565b9050600061196b60028961265c565b9050600061197b8761016861265c565b905060005b878110156119e85760006119948383612922565b905060006119a3838789611c59565b905060006119b2868385611cda565b9050808985815181106119c7576119c761223d565b602002602001018190525050505080806119e0906125f5565b915050611980565b509398975050505050505050565b60608060006040518060400160405280600286600181518110611a1b57611a1b61223d565b60200260200101516000015187600081518110611a3a57611a3a61223d565b602002602001015160000151611a509190612e53565b611a5a9190612e7b565b8152602001600286600181518110611a7457611a7461223d565b60200260200101516020015187600081518110611a9357611a9361223d565b602002602001015160200151611aa99190612e53565b611ab39190612e7b565b90528051909150611ac39061182f565b611ad0826020015161182f565b604051602001611ae1929190612ee3565b604051602081830303815290604052915060005b8451811015611c2f576000858651836001611b109190612670565b611b1a9190612696565b81518110611b2a57611b2a61223d565b602002602001015190506000868751846002611b469190612670565b611b509190612696565b81518110611b6057611b6061223d565b6020026020010151905060006040518060400160405280600284600001518660000151611b8d9190612e53565b611b979190612e7b565b8152602001600284602001518660200151611bb29190612e53565b611bbc9190612e7b565b815250905085611bcf846000015161182f565b611bdc856020015161182f565b8351611be79061182f565b611bf4856020015161182f565b604051602001611c08959493929190612f64565b60405160208183030381529060405295505050508080611c27906125f5565b915050611af5565b5081604051602001611c419190613037565b60405160208183030381529060405292505050919050565b604080514360208201524291810191909152606081018490526080810183905260a081018290526000908190839060c0016040516020818303038152906040528051906020012060001c611cad9190612696565b9050838110156112df57611cc18484612683565b611ccb9082612696565b611cd59085612670565b6114b9565b60408051808201909152600080825260208201526000611d0283670de0b6b3a7640000612922565b9050672b992ddfa23249d66000611d40670de0b6b3a764000060b4611d278587612922565b611d31919061265c565b611d3b919061265c565b611dea565b90506000611d75670de0b6b3a764000060b4611d5c8688612922565b611d66919061265c565b611d70919061265c565b611dfb565b90506000670de0b6b3a7640000611d8c848a613078565b611d969190612e7b565b611da0908a612e53565b90506000670de0b6b3a7640000611db7848b613078565b611dc19190612e7b565b611dcb908b612e53565b6040805180820190915292835260208301525098975050505050505050565b600061041c6715cc96efd11924eb83015b6757325bbf446493ac9081900663400000000204600061ffff600483901c1660ff601484901c16631000000084161563200000008516151581611e405760ff92909203915b6000604051806104400160405280610404815260200161311d610404913960046002860102818101519192509063ffffffff602082901c8116908216818103890260101c600088611e9357818303611e97565b8184015b90508715611ea3576000035b637fffffff670de0b6b3a76400008202059d9c50505050505050505050505050565b7fffffffff0000000000000000000000000000000000000000000000000000000081168114611ef357600080fd5b50565b600060208284031215611f0857600080fd5b813561113281611ec5565b60005b83811015611f2e578181015183820152602001611f16565b50506000910152565b60008151808452611f4f816020860160208601611f13565b601f017fffffffffffffffffffffffffffffffffffffffffffffffffffffffffffffffe0169290920160200192915050565b6020815260006111326020830184611f37565b600060208284031215611fa657600080fd5b5035919050565b803573ffffffffffffffffffffffffffffffffffffffff8116811461185e57600080fd5b60008060408385031215611fe457600080fd5b611fed83611fad565b946020939093013593505050565b60008060006060848603121561201057600080fd5b61201984611fad565b925061202760208501611fad565b9150604084013590509250925092565b60006020828403121561204957600080fd5b61113282611fad565b6000806040838503121561206557600080fd5b61206e83611fad565b91506020830135801515811461208357600080fd5b809150509250929050565b7f4e487b7100000000000000000000000000000000000000000000000000000000600052604160045260246000fd5b600080600080608085870312156120d357600080fd5b6120dc85611fad565b93506120ea60208601611fad565b925060408501359150606085013567ffffffffffffffff8082111561210e57600080fd5b818701915087601f83011261212257600080fd5b8135818111156121345761213461208e565b604051601f82017fffffffffffffffffffffffffffffffffffffffffffffffffffffffffffffffe0908116603f0116810190838211818310171561217a5761217a61208e565b816040528281528a602084870101111561219357600080fd5b82602086016020830137600060208483010152809550505050505092959194509250565b600080604083850312156121ca57600080fd5b6121d383611fad565b91506121e160208401611fad565b90509250929050565b600181811c908216806121fe57607f821691505b602082108103612237577f4e487b7100000000000000000000000000000000000000000000000000000000600052602260045260246000fd5b50919050565b7f4e487b7100000000000000000000000000000000000000000000000000000000600052603260045260246000fd5b8054600090600181811c908083168061228657607f831692505b602080841082036122c0577f4e487b7100000000000000000000000000000000000000000000000000000000600052602260045260246000fd5b8180156122d4576001811461230757612334565b7fffffffffffffffffffffffffffffffffffffffffffffffffffffffffffffff0086168952841515850289019650612334565b60008881526020902060005b8681101561232c5781548b820152908501908301612313565b505084890196505b50505050505092915050565b60008151612352818560208601611f13565b9290920192915050565b7f3c70617468207374726f6b653d227472616e73706172656e7422207374726f6b81527f652d77696474683d2230222066696c6c203d2022000000000000000000000000602082015260006123b4603483018561226c565b7f2220643d22000000000000000000000000000000000000000000000000000000815283516123ea816005840160208801611f13565b7f5a22202f3e00000000000000000000000000000000000000000000000000000060059290910191820152600a01949350505050565b7f3c70617468207472616e73666f726d3d227472616e736c617465282d332c202d81527f332922207374726f6b653d222330303022207374726f6b652d77696474683d2260208201527f32222066696c6c203d20226e6f6e652220643d220000000000000000000000006040820152600082516124a4816054850160208701611f13565b7f22202f3e000000000000000000000000000000000000000000000000000000006054939091019283015250605801919050565b6000885160206124eb8285838e01611f13565b8951918401916124fe8184848e01611f13565b89519201916125108184848d01611f13565b88519201916125228184848c01611f13565b87519201916125348184848b01611f13565b86519201916125468184848a01611f13565b85519201916125588184848901611f13565b919091019a9950505050505050505050565b600073ffffffffffffffffffffffffffffffffffffffff8087168352808616602084015250836040830152608060608301526118c76080830184611f37565b6000602082840312156125bb57600080fd5b815161113281611ec5565b7f4e487b7100000000000000000000000000000000000000000000000000000000600052601160045260246000fd5b60007fffffffffffffffffffffffffffffffffffffffffffffffffffffffffffffffff8203612626576126266125c6565b5060010190565b7f4e487b7100000000000000000000000000000000000000000000000000000000600052601260045260246000fd5b60008261266b5761266b61262d565b500490565b8082018082111561041c5761041c6125c6565b8181038181111561041c5761041c6125c6565b6000826126a5576126a561262d565b500690565b6000816126b9576126b96125c6565b507fffffffffffffffffffffffffffffffffffffffffffffffffffffffffffffffff0190565b7f3c7265637420783d22302220793d2230222077696474683d223130302220686581527f696768743d22313030222066696c6c3d2200000000000000000000000000000060208201526000612737603183018461226c565b7f222f3e0a0000000000000000000000000000000000000000000000000000000081526004019392505050565b7f3c672069643d2265796522207472616e73666f726d203d20227472616e736c6181527f74652835302c20353029223e3c636972636c652069643d22697269732220637860208201527f3d2230222063793d22302220723d2200000000000000000000000000000000006040820152600085516127e881604f850160208a01611f13565b7f22207374726f6b653d222330303022207374726f6b652d77696474683d223222604f918401918201527f2066696c6c3d2223666666223e3c2f636972636c653e3c636972636c65206964606f8201527f3d22707570696c222063783d2200000000000000000000000000000000000000608f820152855161287181609c840160208a01611f13565b7f222063793d220000000000000000000000000000000000000000000000000000609c929091019182015284516128af8160a2840160208901611f13565b6129166128ed6128e760a2848601017f2220723d22000000000000000000000000000000000000000000000000000000815260050190565b87612340565b7f222066696c6c3d2223303030223e3c2f636972636c653e3c2f673e00000000008152601b0190565b98975050505050505050565b808202811582820484141761041c5761041c6125c6565b7f3c673e3c67207472616e73666f726d203d20227472616e736c6174652833382c81527f20353029223e3c636972636c652063783d2230222063793d22302220723d220060208201526000895161299781603f850160208e01611f13565b612a15603f828501017f22207374726f6b653d222330303022207374726f6b652d77696474683d22322281527f2066696c6c3d2223666666223e3c2f636972636c653e3c636972636c6520637860208201527f3d22000000000000000000000000000000000000000000000000000000000000604082015260420190565b90508951612a27818360208e01611f13565b7f222063793d22000000000000000000000000000000000000000000000000000091019081528851612a60816006840160208d01611f13565b7f2220723d22000000000000000000000000000000000000000000000000000000600692909101918201528751612a9e81600b840160208c01611f13565b7f222066696c6c3d2223303030223e3c2f636972636c653e3c2f673e3c67207472600b92909101918201527f616e73666f726d203d20227472616e736c6174652835382c20353029223e3c63602b8201527f6972636c652063783d2230222063793d22302220723d22000000000000000000604b820152612c39612c10612c0a612be1612bdb612bb2612bac612b37606289018f612340565b7f22207374726f6b653d222330303022207374726f6b652d77696474683d22322281527f2066696c6c3d2223666666223e3c2f636972636c653e3c636972636c6520637860208201527f3d22000000000000000000000000000000000000000000000000000000000000604082015260420190565b8c612340565b7f222063793d220000000000000000000000000000000000000000000000000000815260060190565b89612340565b7f2220723d22000000000000000000000000000000000000000000000000000000815260050190565b86612340565b7f222066696c6c3d2223303030223e3c2f636972636c653e3c2f673e3c2f673e008152601f0190565b9b9a5050505050505050505050565b7f7b226e616d65223a220000000000000000000000000000000000000000000000815260008451612c80816009850160208901611f13565b7f222c226465736372697074696f6e223a220000000000000000000000000000006009918401918201528451612cbd81601a840160208901611f13565b7f222c22696d616765223a2022646174613a696d6167652f7376672b786d6c3b62601a92909101918201527f61736536342c0000000000000000000000000000000000000000000000000000603a8201528351612d21816040840160208801611f13565b7f227d0000000000000000000000000000000000000000000000000000000000006040929091019182015260420195945050505050565b7f646174613a6170706c69636174696f6e2f6a736f6e3b6261736536342c000000815260008251612d9081601d850160208701611f13565b91909101601d0192915050565b818103600083128015838313168383128216171561130f5761130f6125c6565b60ff818116838216019081111561041c5761041c6125c6565b60007f80000000000000000000000000000000000000000000000000000000000000008203612e0757612e076125c6565b5060000390565b7f2d00000000000000000000000000000000000000000000000000000000000000815260008251612e46816001850160208701611f13565b9190910160010192915050565b8082018281126000831280158216821582161715612e7357612e736125c6565b505092915050565b600082612e8a57612e8a61262d565b7fffffffffffffffffffffffffffffffffffffffffffffffffffffffffffffffff83147f800000000000000000000000000000000000000000000000000000000000000083141615612ede57612ede6125c6565b500590565b7f4d00000000000000000000000000000000000000000000000000000000000000815260008351612f1b816001850160208801611f13565b7f2c000000000000000000000000000000000000000000000000000000000000006001918401918201528351612f58816002840160208801611f13565b01600201949350505050565b60008651612f76818460208b01611f13565b7f51000000000000000000000000000000000000000000000000000000000000009083019081528651612fb0816001840160208b01611f13565b8082019150507f2c000000000000000000000000000000000000000000000000000000000000008060018301528651612ff0816002850160208b01611f13565b60029201918201819052855161300d816003850160208a01611f13565b60039201918201528351613028816004840160208801611f13565b01600401979650505050505050565b60008251613049818460208701611f13565b7f5a00000000000000000000000000000000000000000000000000000000000000920191825250600101919050565b808202600082127f8000000000000000000000000000000000000000000000000000000000000000841416156130b0576130b06125c6565b818105831482151761041c5761041c6125c656fe3c7376672076696577426f783d2230203020313030203130302220786d6c6e733d22687474703a2f2f7777772e77332e6f72672f323030302f737667222077696474683d2234303022206865696768743d22343030223e0a0000000000c90f8801921d20025b26d703242abf03ed26e604b6195d057f00350647d97c0710a34507d95b9e08a2009a096a90490a3308bc0afb68050bc3ac350c8bd35e0d53db920e1bc2e40ee387660fab272b1072a0481139f0cf120116d512c8106e138edbb1145576b1151bdf8515e2144416a81305176dd9de183366e818f8b83c19bdcbf31a82a0251b4732ef1c0b826a1ccf8cb31d934fe51e56ca1e1f19f97b1fdcdc1b209f701c2161b39f2223a4c522e541af23a6887e2467775725280c5d25e845b626a8218527679df42826b92828e5714a29a3c4852a61b1012b1f34eb2bdc4e6f2c98fbba2d553afb2e110a622ecc681e2f8752623041c76030fbc54d31b54a5d326e54c73326e2c233def2873496824f354d905636041ad936ba2013376f9e46382493b038d8fe93398cdd323a402dd13af2eeb73ba51e293c56ba703d07c1d53db832a53e680b2c3f1749b73fc5ec974073f21d4121589a41ce1e64427a41d04325c13543d09aec447acd50452456bc45cd358f46756827471cece647c3c22e4869e664490f57ee49b415334a581c9d4afb6c974b9e038f4c3fdff34ce100344d8162c34e2106174ebfe8a44f5e08e24ffb654c5097fc5e5133cc9451ced46e5269126e53028517539b2aef5433027d54ca0a4a556040e255f5a4d2568a34a9571deef957b0d2555842dd5458d40e8c5964649759f3de125a8279995b1035ce5b9d11535c290acc5cb420df5d3e52365dc79d7b5e50015d5ed77c895f5e0db25fe3b38d60686cce60ec382f616f146b61f1003e6271fa6862f201ac637114cc63ef328f646c59bf64e889256563bf9165ddfbd266573cbb66cf811f6746c7d767bd0fbc683257aa68a69e806919e31f698c246b69fd614a6a6d98a36adcc9646b4af2786bb812d06c24295f6c8f351b6cf934fb6d6227f96dca0d146e30e3496e96a99c6efb5f116f5f02b16fc1938470231099708378fe70e2cbc571410804719e2cd171fa394872552c8472af05a67307c3cf735f662573b5ebd0740b53fa745f9dd074b2c8837504d3447555bd4b75a585ce75f42c0a7641af3c768e0ea576d9498877235f2c776c4eda77b417df77fab988784033287884841378c7aba17909a92c794a7c11798a23b079c89f6d7a05eeac7a4210d87a7d055a7ab6cba37aef63237b26cb4e7b5d039d7b920b887bc5e28f7bf8882f7c29fbed7c5a3d4f7c894bdd7cb727237ce3ceb17d0f42177d3980eb7d628ac57d8a5f3f7db0fdf77dd6668e7dfa98a77e1d93e97e3f57fe7e5fe4927e7f39567e9d55fb7eba3a387ed5e5c57ef0585f7f0991c37f2191b37f3857f57f4de4507f62368e7f754e7f7f872bf27f97cebc7fa736b37fb563b27fc255957fce0c3d7fd8878d7fe1c76a7fe9cbbf7ff094777ff621817ffa72d07ffd88597fff62157fffffffa164736f6c6343000815000a",
    "linkReferences": {}
  },
  "methodIdentifiers": {
    "approve(address,uint256)": "095ea7b3",
    "balanceOf(address)": "70a08231",
    "getApproved(uint256)": "081812fc",
    "isApprovedForAll(address,address)": "e985e9c5",
    "name()": "06fdde03",
    "owner()": "8da5cb5b",
    "ownerOf(uint256)": "6352211e",
    "safeTransferFrom(address,address,uint256)": "42842e0e",
    "safeTransferFrom(address,address,uint256,bytes)": "b88d4fde",
    "setApprovalForAll(address,bool)": "a22cb465",
    "supportsInterface(bytes4)": "01ffc9a7",
    "symbol()": "95d89b41",
    "tokenURI(uint256)": "c87b56dd",
    "totalSupply()": "18160ddd",
    "transferFrom(address,address,uint256)": "23b872dd",
    "transferOwnership(address)": "f2fde38b"
  },
  "id": 26
}